:100000000C9483060C94BB060C94BB060C949A2BA0
:100010000C94BB060C94BB060C94BB060C94BB065C
:100020000C94BB060C94BB060C9413140C942A1865
:100030000C9486230C94BB060C94BB060C94BB0654
:100040000C94BB060C94BB060C94BB060C94BB062C
:100050000C94BB060C94EC140C94BB060C94BB06DD
:100060000C94BB060C94BB060C94BB060C94BB060C
:100070000C94BB060C94BB060C94BB060C94BB06FC
:100080000C94BB060C94BB060C94BB060C94BB06EC
:100090000C94BB060C94BB060C94BB060C94BB06DC
:1000A0000C94BB060C94BB060C94BB062B001400EE
:1000B0001A00080015001700E000040016000700F1
:1000C00009000A00E100E3001D001B000600190002
:1000D000000000000000280021522A0023521300D3
:1000E00012000C0018001C00340033000F000E003A
:1000F0000D000B003800370036001000110005001D
:100100000000000000002B0022522C002B001E00DB
:100110001F00200021002200E0000000000000007D
:1001200000000000E10000000000000000000000EE
:10013000000000000000E30001002C002A0027005E
:100140002600250024002300000000004F0052007C
:1001500051005000000000000000000000000000FE
:10016000000000000000E600235228002B001E02C1
:100170001F02200221022202E00000000000000015
:1001800000000000E100000000000000000000008E
:10019000000000000000E30023522C002A00270288
:1001A00026022502240223023500310030002F00F0
:1001B0002E002D003502310230022F022E022D02B8
:1001C000000000000000E60001002800007C0000A4
:1001D00000000000000000002078237825782778B0
:1001E000000000002178247826782878000000009C
:1001F000000000000000E30001002C0001000000EE
:1002000000000000000000000000000000000000EE
:1002100000000000000000000000000000000000DE
:10022000000000000000E6000100280000DA028162
:10023000FFD9F1DB20A4A62EAF00A0C000A1C8000A
:10024000AED580A81FD300408D142000000000E030
:1002500000F8C0F8E0C0FC007E180080000280F0CA
:1002600000C080F8C0E070603C383C1C003F0C0FC0
:100270001F030701C300E08000E080F880C0F7C7DB
:100280006F7B3930008000C000C0C2E000403830D1
:10029000381E181E0F0C07070703032121313018E1
:1002A000181C080C0E07060703C303014CCCC2C27E
:1002B0004149092B2A6A6E2424049292B1F1F1F289
:1002C000E6A4A4040428282828282828636F726E2E
:1002D0006500209D9E9F2020BDBEBF2020DDDEDF6B
:1002E0002000209495962020B4B5B62020D4D5D6F1
:1002F0002000209798992020B7B8B92020D7D8D9C6
:100300002000209A9B9C2020BABBBC2020DADBDC9A
:100310002000202020202000A7A800AFB000C600A9
:10032000CA00C800A5A600ADAE008788008F900067
:10033000C500C900C700CB008586008D8E00ABAC20
:1003400000CFD000C600CA00C800A9AA00B1B20000
:100350008B8C00CDCE00C500C900C700CB00898AB8
:100360000091920020200053200020200043200014
:100370002020004E200000000010000000000000BF
:1003800000081C080000000000000000020000003F
:10039000000010000000000000002000000000002D
:1003A000000000020040E0400000000000000400E7
:1003B00000000080C080C080000000000000E0005D
:1003C0008000F00000C000000000000000400000BD
:1003D0000000000001008100C000FE00FC00FF20C2
:1003E000FFF00FF000FF0000000010000000000010
:1003F0009000F80000F8FF10FF84FF60FF36FF0F49
:10040000FF3F005F000580008000C03800ECF00076
:10041000FB80FFF0FFEFFFE8FF03FF0CFF00FF0092
:10042000030000F80080FF20FFD0FFE0FEF8FFFC93
:10043000FFFF0FFF013FFF000F0001000300FE80E0
:10044000FE00C0FFC4FBFFFEFFFFFF3FFFFF07FFF3
:10045000033F000FC0000000B800FF40BEF0FFF1F6
:10046000FFFEFFFFFFFF1FFF6700EF001F000007F9
:100470000000E000FFF0FF88FFC4FFF8FFFFFFFF70
:10048000FFFF8F7F0FFF0007FE000700000000F84E
:1004900000C03FF8E7FFFFFFFF1FFFFF1F3F01FF07
:1004A0000B00FF000005000000E000F86080FEE3A4
:1004B000FCFF1EFFFF23FF09FF20003F0200000F8B
:1004C000004000C000FCE0FCF0FFFF7FFCFF0FFFDE
:1004D000071F00010F000F0081700CF0800000E486
:1004E000F8E6703FCFFF1FFF48FF0F0007000043F3
:1004F00060F8F0FE38FE00FC0300C872CFFC000379
:100500000F01E01CE003000F00000000000000F8F5
:1005100006F900030007FF001012C9F0CFB47F8076
:10052000E01E0140655EE00000F00CF000807E01FE
:100530008093FCC000000000000089182C460007D2
:1005400021101080091331BFFF00081AF70F0000B7
:10055000444534BFB80010F008F41811FC18FB0E25
:1005600010F804F810201809FF0CEA1F286030F872
:1005700020C04233210000010101010101010101FC
:100580000202020202020202020303030303030344
:100590000304040404040404050505050506060611
:1005A0000606070707070708080808090909090ACE
:1005B0000A0A0B0B0B0C0C0C0D0D0D0E0E0E0F0F73
:1005C0000F10101111111212131314141515161601
:1005D0001717181819191A1A1B1B1C1D1D1E1E1F70
:1005E0002020212222232424252626272829292ABF
:1005F0002B2C2D2D2E2F30313232333435363738E7
:10060000393A3B3C3D3E3F404142434445464748E2
:10061000494A4C4D4E4F50515354555658595A5BB8
:100620005D5E5F616264656668696B6C6D6F707258
:10063000737577787A7B7D7E8082838587888A8CC4
:100640008E8F91939596989A9C9EA0A2A3A5A7A9F8
:10065000ABADAFB1B3B5B7BABCBEC0C2C4C6C9CBEF
:10066000CDCFD1D4D6D8DBDDDFE2E4E7E9EBEEF0A5
:10067000F3F5F8FAFDFF00AF00AE05010902A10194
:1006800085020901A10005091901290815002501A4
:100690009508750181020501093009311581257F11
:1006A00095027508810609381581257F9501750821
:1006B0008106050C0A38021581257F950175088190
:1006C00006C0C005010980A101850319012AB700F0
:1006D000150126B700950175108100C0050C0901B0
:1006E000A101850419012AA002150126A002950185
:1006F00075108100C005010906A101050719E0294F
:10070000E71500250195087501810295017508819D
:10071000010507190029FF150026FF009506750839
:1007200081000508190129059505750191029501BA
:1007300075039101C009023B00020100A0FA0904FF
:100740000000010301010009211101000122400004
:1007500007058103080001090401000103000000EE
:10076000092111010001227B0007058203200001FD
:1007700012010002000000081D8D3A340001010240
:10078000000124034100750072006F0072006100D7
:10079000200043006F0072006E00650020007200B0
:1007A00065007600310000001803730070006C00D3
:1007B000690074006B0062002E0063006F006D0022
:1007C0000000040309040000000000003E5B4F5BD2
:1007D0003E003E6B4F6B3E001C3E7C3E1C00183CB6
:1007E0007E3C18001C577D571C001C5E7F5E1C0061
:1007F00000183C180000FFE7C3E7FF0000182418AA
:100800000000FFE7DBE7FF0030483A060E0026292C
:1008100079292600407F05050700407F05253F0018
:100820005A3CE73C5A007F3E1C1C0800081C1C3E3A
:100830007F0014227F2214005F5F005F5F000609C3
:100840007F017F00006689956A00606060606000DB
:1008500094A2FFA2940008047E04080010207E20C9
:10086000100008082A1C0800081C2A0808001E108E
:10087000101010000C1E0C1E0C0030383E383000DA
:10088000060E3E0E060000000000000000005F00A3
:100890000000000700070000147F147F1400242AC2
:1008A0007F2A120023130864620036495620500044
:1008B000000807030000001C224100000041221C28
:1008C00000002A1C7F1C2A0008083E08080000803F
:1008D0007030000008080808080000006060000090
:1008E0002010080402003E5149453E0000427F406E
:1008F00000007249494946002141494D330018140E
:10090000127F10002745454539003C4A49493100CE
:10091000412111090700364949493600464949290C
:100920001E00000014000000004034000000000819
:10093000142241001414141414000041221408005D
:100940000201590906003E415D594E007C12111208
:100950007C007F49494936003E41414122007F41A8
:1009600041413E007F49494941007F090909010091
:100970003E41415173007F0808087F0000417F41DC
:1009800000002040413F01007F08142241007F40C9
:10099000404040007F021C027F007F0408107F005F
:1009A0003E4141413E007F09090906003E41512177
:1009B0005E007F0919294600264949493200030192
:1009C0007F0103003F4040403F001F2040201F00A8
:1009D0003F4038403F006314081463000304780468
:1009E00003006159494D4300007F41414100020429
:1009F00008102000004141417F0004020102040070
:100A00004040404040000003070800002054547854
:100A100040007F2844443800384444442800384487
:100A200044287F0038545454180000087E090200FE
:100A30001824241C78007F080404780000447D40BA
:100A400000002040403D00007F102844000000418D
:100A50007F4000007C04780478007C08040478005F
:100A60003844444438007C182424180018242418DE
:100A70007C007C08040408004854545424000404F6
:100A80003F4424003C4040207C001C2040201C00AF
:100A90003C4030403C004428102844004C9090904A
:100AA0007C004464544C44000008364100000000BF
:100AB0007700000000413608000002010204020035
:100AC0003C2623263C000000000000000000C0E09F
:100AD000F0F8F81800C0F0FCFEFFFFFFFFFFFFFF7B
:100AE0007E00000000F8042252E2424242E252221A
:100AF00022224282020222220204F80000F80402AA
:100B00000282422242820202028242221222428255
:100B10000204F80000F8FCDEAE1EBEBEBE1EAEDE55
:100B2000DEDEBE7EFEFEDEDEFEFCF80000F8FCFE31
:100B3000FE7EBEDEBE7EFEFE000000000000808065
:100B400040402020101008081010202040408080D5
:100B50008080C0C0E0E0F0F0F8F8F0F0E0E0C0C065
:100B60008080808040402020101008081010202035
:100B700040408080808040C060A050B058A850B0F5
:100B800060A040C0808000F8FCFEFFE000FFFFFF97
:100B9000FFFFFF80FFFFFFFFFFFFFFFFFF1F0701BA
:100BA00000000000001F20444A47424242474A4496
:100BB000404040404142444440201F00001F20402C
:100BC000414040404040414041414F4848484F41EA
:100BD00041201F00001F3F7B75787D7D7D78757BF0
:100BE0007F7F7F7F7E7D7B7B7F3F1F00001F3F7F5E
:100BF0007E7F7F7F7F7F7E7F0000000000008888EF
:100C00005D5D3E3E7C7CF8F87C7C3E3E5D5D888888
:100C100088885555232347478F8F474723235555AA
:100C200088888888D5D5E2E2C4C48888C4C4E2E252
:100C3000D5D5888888885DD56BB66DD6ADDA6DD68A
:100C40006BB65DD5888800030F1F3F3F3F3F1F1FD6
:100C50003F3F7F7F7F3F3F1F3F7F7F7F7F7C787855
:100C6000381C0F0004F80000F804201F00001F20AB
:100C7000FCF80000F8043F1F00001F2004F80000EB
:100C8000F8FC201F00001F3FFCF80000F8FC3F1F8D
:100C900000001F3FFE7EBEDEEEDEBE7EFEFCF800E4
:100CA0007E7E70777777707E7E3F1F0000000000A9
:100CB0000000000000000000000000000000000034
:100CC00001010202040408080404020201010000F8
:100CD00000000101020204040808040402020101E8
:100CE000000000000101030307070F0F07070303BC
:100CF0000101000000000101030205060D0A0506BE
:100D000003020101000011241FBECFEFDAE0DEBFB5
:100D1000CDBF04B603FE18C0809182069091830671
:100D2000A0918406B09185068730904BA740B04BC8
:100D300059F4109282061092830610928406109243
:100D40008506E0E0F8E3099512E0A0E0B1E0ECED03
:100D5000FBE502C005900D92A239B107D9F726E054
:100D6000A2E9B2E001C01D92A238B207E1F70E94E9
:100D7000AD230C94982D0C94000080917104837025
:100D800051F084608093710410926201809170042C
:100D9000816080937004089590917104937071F054
:100DA0008093720460937304413808F040E84093E4
:100DB0007404809170048160809370040895E8ED5C
:100DC000F0E080818E7F80831092E2001092DA0042
:100DD0001092E100A0EEB0E08C9181608C93808154
:100DE0008F77808319BCA7EDB0E08C918E7F8C93B8
:100DF00080818F7E80831092560408952091E400B4
:100E00003091E50095E6A9012091EC00822F8170D8
:100E100020FF06C08091E80080FF06C080E00895B2
:100E20002091E80022FD1AC080916304882389F094
:100E3000853089F08091EB0085FD0FC02091E400A2
:100E40003091E50042175307F9F29150E1F684E042
:100E5000089582E0089583E0089581E008958091E7
:100E6000650487FF13C08091E80082FF06C080916F
:100E7000E8008B778093E80004C0809163048111BF
:100E8000F2CF0895809163048823D9F38091E8001C
:100E900080FFF8CF8091E8008E77ECCF982F909369
:100EA000E900242F762F50E0891731F07091EC0083
:100EB0002091ED005091F00021FD07C09F5F973019
:100EC00071F78093E90081E008953091EB003E7F57
:100ED0003093EB003091ED003D7F3093ED00309189
:100EE000EB0031603093EB007093EC002093ED0049
:100EF0005093F0002091EE0027FDE0CF80E00895B0
:100F0000B0E0A0E0E6E8F7E00C94D42CC8EDD0E027
:100F100088818F7E8883E7EDF0E080818160808327
:100F200084E082BF81E08093560488818E7F88832D
:100F300002EE10E0F80110821092DA0081EEC82E65
:100F4000D12CF601108288818F7788838881806810
:100F5000888388818F7D888319BC109263041092E6
:100F60006404109262041092610490EEE92EF12C58
:100F7000F70180818B7F808388818160888342E054
:100F800060E080E00E944E07F60180818E7F8083C2
:100F9000F801808181608083808188608083F7018F
:100FA00080818E7F8083888180618883CDB7DEB722
:100FB000E8E00C94F02CFC0180916B0490916C049F
:100FC00086179707A0F06115710529F49091E80044
:100FD0009E779093E80090E06115710551F49111AE
:100FE00008C08091E80082FF34C080E00895BC0111
:100FF000F2CF809163048823C1F18530C1F18091E3
:10100000E80083FD30C08091E80082FDEACF809146
:10101000E80080FFE1CF8091F3002091F200382FAB
:101020006115710519F02830310558F091E028302C
:10103000310509F090E02091E8002E772093E80038
:10104000CBCF81918093F100615071092F5F3F4FA9
:10105000E7CF80916304882341F0853041F080918F
:10106000E80083FFBECF81E0089582E0089583E029
:1010700008958091580408952FB7F8946091520410
:101080007091530480915404909155042FBF08959A
:101090009C01FC0132969FEF80E04191461751F090
:1010A0009F3F19F4411101C0982F8F5F8630A9F737
:1010B0009F3F09F40895290F311D97FD3A95F901D5
:1010C00062830895A3E0B0E0E8E6F8E00C94DA2C3F
:1010D00020914F043091500428173907A1F09093C4
:1010E000500480934F04E0914D04F0914E043097EA
:1010F00051F024E029839B838A830680F781E02DC9
:10110000CE01019609952396E2E00C94F62CA3E01B
:10111000B0E0EDE8F8E00C94DA2C20914B0430912B
:101120004C0428173907A1F090934C0480934B048A
:10113000E0914D04F0914E04309751F023E0298363
:101140009B838A830680F781E02DCE010196099565
:101150002396E2E00C94F62CCF93DF932091800647
:10116000309181062A573440A901460F571F41305C
:10117000524020F060E072E0621B730B40917804F3
:1011800050917904FC01C901620F731FC1E0D0E0E6
:101190008617970738F05093790440937804DF91CD
:1011A000CF9108952491DC01A658BB4F3C91321792
:1011B00081F02C939C01A5E036952795AA95E1F73F
:1011C000DE0102C0AA0FBB1F2A95E2F79D014A2B40
:1011D000532B01963196DCCFFC01680F791F8FEFFE
:1011E00091E32191822728E030E087FF09C0880F32
:1011F000892721503109C9F7E617F70791F70895B4
:10120000880FF7CFFA01811101C0FB0109950895FC
:101210007C990FC08B3191057CF04B97FC01EE0F50
:10122000FF1FE80FF91FED55FC4F618340832283B8
:1012300003C08B31910594F30895E1E7F4E0248134
:1012400030E1231B08F420E0248380917004816046
:10125000809370040895E1E7F4E0248130E1230FE6
:1012600008F42FEF248380917004816080937004D0
:101270000895E1E7F4E0438120E1421B08F440E0F7
:101280008181628190E00E94CC060895E1E7F4E05C
:10129000438120E1420F08F44FEF8181628190E0A9
:1012A0000E94CC060895E1E7F4E0628120E1621B30
:1012B00008F460E08181438190E00E94CC060895AB
:1012C000E1E7F4E0628120E1620F08F46FEF8181D1
:1012D000438190E00E94CC060895E1E7F4E081812B
:1012E000438162818850990B0E94CC060895E1E702
:1012F000F4E0818190E04381628108960E94CC06EF
:1013000008958091710486958695815009F481E055
:101310000E94BD06089581E00E94BD060895FF92D7
:101320000F931F93CF93DF93182F062FF42ED0E047
:10133000C0E02F2D402F612FCE010E940809219679
:10134000C633D105B1F7CDB7DEB7E5E00C94F32C89
:101350008091900380FD16C081FD16C082FD16C0ED
:1013600080918F038823A1F0883280F428E0829F47
:10137000C001112468E270E00E940D2D862F672BBA
:1013800039F0089582E0089584E0089588E0089592
:1013900081E008958091900380FD14C081FD14C008
:1013A00082FD16C080918E03882381F08E3180F4F7
:1013B00020E5829FC00111246EE170E00E940D2D96
:1013C000862F089584E1089588E2089588E00895BD
:1013D00080E5089580E00895F894E82FE295EF7095
:1013E000F0E031A1282F2F7081E090E001C0880F3C
:1013F0002A95EAF7982F9095932391A392A1892B90
:1014000082A37894089590914A0392FF06C0282FF2
:1014100028712830F9F4877F846093FF06C0282F55
:1014200028712831F1F4877E846120914B0320FFDD
:1014300006C0382F38713830D9F4877F816021FF9A
:1014400006C0282F28712831D1F4877E816194FD50
:10145000877E0895282F24712430F9F68B7F8860C9
:10146000DCCF282F2471243101F78B7E8861DDCFFA
:10147000382F3171313019F78E7F8860E0CF282FF7
:101480002171213121F78E7E8861E1CF823891056B
:10149000B9F1B0F48133910509F47DC048F4893283
:1014A000910509F46DC08A32910509F47BC0089555
:1014B0008533910509F45FC08933910509F10895D9
:1014C000833E9105D9F138F4803E910529F1823EA1
:1014D000910579F10895863E9105D9F1873E9105F0
:1014E00009F43EC0843E910541F520914B0321FF54
:1014F00024C080914A0384FD19C087EE90E00895CE
:1015000020914A03237009F05AC020914B0323FF16
:1015100014C089E290E0089520914A0320FD38C06C
:1015200030914B0330FF09C024FF43C090E080E0BE
:10153000089520914A0322FDF7CF089520914A0390
:1015400022FD3AC030914B0330FD39C024FFF5CF66
:10155000EDCF20914A0323FFF0CF24FDE7CFCDCF7D
:1015600020914A0323FD2EC030914B0331FFEECF73
:1015700084EE90E0089520914A0325FFDECFC9CF85
:1015800020914A0325FD21C020914B0323FFD5CF95
:1015900089E390E0D2CF20914A0326FFCECF8AE2A2
:1015A00090E0089520914A0326FFC7CF81E390E0A1
:1015B000089583EE90E0089582EE90E0089580EE25
:1015C00090E0089586EE90E0089585E390E0089518
:1015D000972F7830B8F46630A8F48430B0F470E017
:1015E00026E0929F600D711D1124FB0190E3899FFD
:1015F000E00DF11D1124EE0FFF1FE455FF4F859103
:101600009491089580E090E0089581E0FCCF1F93CD
:10161000CF93DF930E94460AEC01C11580E5D807FD
:10162000F0F5C11580E4D80708F09CC0C03ED10594
:1016300020F5CD3CD10508F082C0C83AD10578F438
:10164000C53AD10508F073C0C130D10519F1209712
:1016500009F1C430D105F0F4D0E0C0E01BC0C33CB8
:10166000D105D0F7C85AD0E0CC0FDD1FC159DE4FED
:101670000990D881C02DD4640DC0C11580E2D8076F
:1016800008F0D1C0C11581E0D80708F05AC0C83EA3
:10169000D10510F7CE01DF91CF911F910895C0368B
:1016A00082E5D80718F5C03482E5D80708F06BC08A
:1016B000C03282E5D80708F05FC0C11582E5D807BF
:1016C00008F497C02C2F2695269580E2289F90013C
:1016D00011248C2F8370C1E0D0E002C0CC0FDD1F3D
:1016E0008A95E2F7C22BD32BDD68D4CFC03A82E5CE
:1016F000D80760F4C03882E5D80708F459C0CF7124
:10170000D0E0DC2FCC27C46FD06AC4CFC03C82E5C8
:10171000D80708F462C0C03E82E5D80708F09CCF25
:10172000DC2FCC27CC27DF71C06FD06AB3CFC55A6E
:10173000D0E0C459DE4FC881D0E0D064ABCFD065D3
:10174000A9CF8D2F0E94030A182FCE0199270E943E
:10175000460AC12FD0E0DC2FCC27CC27DF71C82B65
:10176000D92B98CFCE0199270E94460ACC27DF704B
:10177000C82BD92BD06A8ECFCF71D0E0DC2FCC27ED
:10178000C16FD06A87CF2C2F26952695277080E2CF
:10179000289F900111248C2F8370C1E0D0E002C0FB
:1017A000CC0FDD1F8A95E2F7C22BD32BDC6872CFFA
:1017B0002C2F26952695277080E2289F90011124D2
:1017C0008C2F8370C1E0D0E002C0CC0FDD1F8A9562
:1017D000E2F7C22BD32BDA685DCF8C2F8F710E947A
:1017E000030AC82FD0E0DC2FCC27CC27DF71D062D2
:1017F00051CF8C2F8F710E94030A55E0D695C79563
:101800005A95E1F7CF70D0E0DC2FCC27282F30E0BD
:1018100084FF05C044E0220F331F4A95E1F7C22B35
:10182000D32BD06937CF8D2F8F710E94030A182FC9
:10183000CE0199270E94460AC12FD0E0DC2FCC2789
:10184000CC27DF71C82BD92BD2CF0E943C0808953A
:10185000809168038111109268030895809590919A
:10186000670398239093670308952091EC02909169
:10187000BB0256E0291302C080E0089530E0529F79
:10188000F001539FF00D1124E454FD4F7181761344
:1018900006C07081781303C07281741304C02F5F77
:1018A0003F4F2770E7CF81E008958091EC0290913F
:1018B000BB02981301C008958F5F8770FACFB0E024
:1018C000A0E0E5E6FCE00C94D32C7C0100916503DC
:1018D000109166038091F7029091F802082B192B62
:1018E000CFE0D0E0CC24C394D12CBC2EC6010C2E6A
:1018F00002C0880F991F0A94E2F780239123892B55
:1019000049F4219790F7B12C8B2DCDB7DEB7E9E0E4
:101910000C94EF2CB7018C2F0E94E80A0E94070B51
:10192000019779F3F1CFCF93DF93EC010E945F0C25
:10193000BE010E94E80A0E94070BDF91CF91089533
:10194000983078F5863068F5E82FF0E086E0989FCB
:10195000E00DF11D11249E2F977083E0F695E79519
:101960008A95E1F7EE0FFF1FEE0FFF1FE356FD4FC5
:1019700050E040E080E0219130E0092E02C0369531
:1019800027950A94E2F721703327042E01C0220F15
:101990000A94EAF7822B4F5F5F4F4430510559F7A5
:1019A000089580E00895983098F5863088F5E82FFE
:1019B000F0E086E0989FE00DF11D11248E2F8770D6
:1019C00041E001C0440F8A95EAF783E0F695E79578
:1019D0008A95E1F7EE0FFF1FEE0FFF1FE356FD4F55
:1019E00030E020E070E05191DF011197CB01022E31
:1019F00002C0969587950A94E2F7817081958527B4
:101A0000842385278C932F5F3F4F2430310559F76E
:101A100008959093660380936503089521E030E074
:101A200002C0220F331F8A95E2F7209530958091EE
:101A3000650390916603822393230E94090D089504
:101A40009091ED02809589238093ED02282F2770D5
:101A500091F4282F082E000C330B9217130659F01F
:101A600090914B0392FF07C08595859585950E94BF
:101A70000E0D1092ED02089521E030E002C0220F19
:101A8000331F8A95E2F78091650390916603822B5C
:101A9000932B0E94090D08959093F8028093F7020A
:101AA0000895FC0183819481892B29F080819181A3
:101AB00089238F3F51F480E00895843FE1F717C0F8
:101AC000883EA8F0813FB9F712C0808191810E94C1
:101AD000930C92959F70963099F358F4925F9F7093
:101AE000923048F7803F19F040F7883E20F781E0B8
:101AF00008959A5FF4CFCF93DF93C0918006D09181
:101B000081068A30C1F420917704CE018A5794402F
:101B1000622F70E00E94B62C281B822F66E00E9484
:101B2000012DC82FC15018F4DF91CF91089580E2A4
:101B30000E947B0DF7CF8D30E9F4CA57D440209135
:101B40007704622F70E0CE010E94B62C281B822FF2
:101B50009E01280F311D2115324018F080E0D0E0A1
:101B6000C0E0C80FD11DC658DB4FD0938106C0938B
:101B70008006DACF96E0FE01AAE7B6E001900D926A
:101B80009A95E1F7803E08F458C086E0FE01119274
:101B90008A95E9F7C0918006D091810646E050E031
:101BA000BE018AE796E00E94302D9E012A573440FC
:101BB000892B41F1C90145E0969587954A95E1F752
:101BC00041E050E0BA0102C0660F771F8A95E2F744
:101BD000CB016091780470917904862B972BB90121
:101BE0006B5F7F4FE5E076956795EA95E1F702C078
:101BF000440F551F6A95E2F7842B952B9093790437
:101C0000809378042A5F3F4F40917704642F70E0FF
:101C1000C9010E94B62C481B463010F4240F311D18
:101C2000211572E0370710F030E020E026583B4FD6
:101C3000309381062093800677CFF6E08F9FB00126
:101C400011246A53784F46E050E0CE010E94272DC0
:101C5000A1CFCF93DF93EC01FE018491811103C0EA
:101C6000DF91CF9108950E947B0D2196F5CF809151
:101C700067039091F602892B8093940290916803F8
:101C8000992391F0892B8093940220E086E992E0D9
:101C9000FC013191CF0131112F5FF2E08C399F07A8
:101CA000B9F721110E94280C48E050E06EEE72E076
:101CB00084E992E00E94302D892BA9F088E0E4E9C4
:101CC000F2E0AEEEB2E001900D928A95E1F7E0917C
:101CD0004D04F0914E04309731F00280F381E02DF5
:101CE00084E992E009950895882321F00E942E0C42
:101CF0000E94370E0895882339F090916703982B3E
:101D0000909367030E94370E0895B0E0A0E0EBE8DF
:101D1000FEE00C94D42C6C017B0164E670E088E753
:101D20000E94142AEC0197FD12C010E000E0F601B9
:101D3000E00FF11F849164E670E00E94802AEC01BC
:101D4000892B29F40F5F1F4F0E151F0581F70E9485
:101D5000F62ACE01CDB7DEB7E8E00C94F02C8091E6
:101D6000490490914A04911103C091E08927089594
:101D7000882369F062E070E088E796E00E94850EB3
:101D8000892B19F08091490408951092490480919B
:101D90004904EBCFCF93C091490480914A04882332
:101DA000D1F00E943C08605A75418F4F9F4F60935D
:101DB0004504709346048093470490934804C111EE
:101DC00008C062E070E086E796E00E94850E892BED
:101DD00029F0C09149048C2FCF91089581E0809320
:101DE0004904F7CF0F931F93CF93DF938B01EA0141
:101DF00090916304943061F58093E9008FEF9091A6
:101E0000E800815095FD06C095ED9A95F1F7000028
:101E10008111F5CF8091E80085FF1AC00E94FE066F
:101E2000811111C08091E80085FD06C08091E80015
:101E30008E778093E800F2CFF80181918F01809333
:101E4000F100219779F78091E8008E778093E80080
:101E5000DF91CF911F910F91089543E050E0BC01B5
:101E600082E00E94F20E089546E050E0BC0182E05C
:101E70000E94F20E0895CF93DF93EC0148E050E00A
:101E8000BC0181E00E94F20E88E0FE01A9E5B4E009
:101E900001900D928A95E1F7DF91CF91089581E04D
:101EA0008093E00080E28093D8001092C9008FE117
:101EB0009EE40197F1F700C0000087E090EBDC01A1
:101EC0008093820690938306A0938406B093850640
:101ED00088E19CE00FB6F894A895809360000FBE4F
:101EE00090936000FFCF539A3BB1377F2BB12860AE
:101EF0004FB7F89483EA93E0FC015191CF0168E079
:101F00002BB9000000C057FF3BB9550F000000C0BF
:101F100000C000C03BB900C06A9591F7F4E0853479
:101F20009F0751F74FBF8FE594E00197F1F700C08D
:101F300000000895B0E0A0E0E0EAFFE00C94D22CAD
:101F40007C015B016A018091390301E010E08A3075
:101F500010F40AE010E0C1E0D0E0B501C701F601DD
:101F60000995811104C021960C171D072CF4CDB7DB
:101F7000DEB7EAE00C94EE2CCC9F9001CD9F300DA3
:101F8000300D112490E080E045E34A95F1F7000020
:101F9000019682179307C1F7E0CF80910503811165
:101FA00010C08091D80080618093D8008AE18A9522
:101FB000F1F700C08091D90080FF0AC081E08093D2
:101FC000050381E090910503913009F080E00895C8
:101FD00082E0809305030E94DF0610926304F1CF34
:101FE0000E94CD0F882359F0E0914D04F0914E04EA
:101FF000309729F00190F081E02D0995089580E057
:1020000008950F931F930E94CD0F882329F00E94FB
:102010003C081F910F9108950E943C0800913A03DB
:1020200010913B0320913C0330913D03600F711FE1
:10203000821F931FEECFB0E0A0E0E1E2F0E10C944C
:10204000D02C0E94011060939B0370939C0380939B
:102050009D0390939E0330917104D32FD37019F098
:10206000D32FD695D695209162012130D9F0222325
:1020700059F0223009F413C1233009F419C1CDB746
:10208000DEB7ECE00C94EC2C10925E0160939F03A1
:102090007093A0038093A1039093A20381E08093A7
:1020A0006201EDCF90915D0181E0D9130BC0832FC8
:1020B000837020915C0130E091E08217130609F4EF
:1020C00090E0892F817080936001809176049091D7
:1020D0005F01981739F080935F0140E060E080E095
:1020E0000E948F09DD2321F0D13061F080E03AC0F9
:1020F000809160018823B1F140E060E080E00E94BF
:102100008F09F4CF90905E018BE0989E902C112463
:102110001BE0190D173308F016E37C9B03C01C313C
:1021200008F01BE17C9906C02BE1C22E9C1410F430
:102130009BE1992E40917204D0907304E091740455
:10214000F0E0EA58FA4FD1101FC0F4900F2DCF2DB8
:10215000C92CD12CC11608F48CC081E07C9B9BC09B
:102160001B3120F690915E019F5F90935E0181117B
:1021700086CF82E0809362018091600181117FCFE0
:10218000D1117DCF83E08BCFED2CF12CC4918C2E1F
:10219000EC2FF0E026E0429FC00111242FEF30E049
:1021A000B9010E94B62CA42FB0E0AA0FBB1F45E5D1
:1021B000469FC001479F900D1124AD01481B590B4C
:1021C000A42FAA0FA40FC9018E199F098E9FA001E9
:1021D0008F9F500D9E9F500D1124052FDA9EC00138
:1021E0001124892F99276901C81AD90ACE9E500156
:1021F000CF9EB00CDE9EB00C11246901CA1AD10822
:10220000CE9CD001CF9CB00DDE9CB00D1124AB2F25
:10221000BB272A1B3B0B2E9FC0012F9F900D3E9F7B
:10222000900D1124F92E62307105A1F050F4611562
:10223000710509F48DCF6130710581F0F52E0B2DFC
:1022400087CF6430710569F080F06630710509F45C
:102250007FCFF4CFFC2EC52F092F7ACFFC2ECB2DAC
:1022600077CFF52E0C2FC92F73CFC52F082DFB2C40
:102270006FCFF601E55AFD4F808190915F01892370
:1022800031F0202F4F2D6C2FC6010E9408092FEF2F
:10229000C21AD20A5FCF163308F464CF27CFD09387
:1022A0005D01832F837080935C010E94730F6ACF5E
:1022B00080917004882351F046E050E06CE170E0BA
:1022C00081E794E00E94642D10927004C0909F03F7
:1022D000D090A003E090A103F090A2030E94CD0F44
:1022E0008823C1F02FB7F894609152047091530481
:1022F00080915404909155042FBF6C197D098E096B
:102300009F09603171058105910508F4B8CE1092DE
:102310006201B5CE0E940110F0CFE1E7F4E085E064
:1023200080838091630190916401A0916501818314
:102330009283A3838FE784838FEF858346E050E009
:102340006CE170E0CF010E94642D1092700408953A
:1023500090914B0392FB222720F9281779F080FBFC
:1023600092F990934B0360914A0370914B0384E080
:1023700090E00E94922D82E00E94200D0895A4E03A
:10238000B0E0E5ECF1E10C94D92C40912D03509193
:102390002E0360912F03709130032FB7F894809132
:1023A000520490915304A0915404B09155042FBF4E
:1023B000841B950BA60BB70B11E084369105A10584
:1023C000B10570F10E9401106E5F7F4F8F4F9F4FDC
:1023D00069837A838B839C838091290190912A0160
:1023E0008A5E9C4F4091280150E04530510510F025
:1023F00044E050E0BE016F5F7F4F0E943D2D85E0BD
:1024000090E00E94402C182F882351F00E943C0835
:1024100060932D0370932E0380932F0390933003CA
:10242000812F2496E3E00C94F52C4F925F926F92EB
:102430007F928F929F92AF92BF92EF92FF920F93F3
:102440001F93CF93DF937B01FB014080518062801B
:1024500073809FB7F8948090520490905304A0909A
:102460005404B09055049FBF84189508A608B70877
:10247000F4E68F169104A104B10418F4C1E04423DA
:1024800029F1C82F880FDD0BFE0183E0EE0FFF1F3F
:102490008A95E1F7E050FF4F818192818A5E9C4FDF
:1024A000408150E00417150708F4A801B9010E9403
:1024B0003D2DCE010E94402CC82F882339F00E9468
:1024C0003C08F70160837183828393838C2FDF91B3
:1024D000CF911F910F91FF90EF90BF90AF909F9081
:1024E0008F907F906F905F904F900895A1E0B0E043
:1024F000ECE7F2E10C94D82C809149048983209177
:102500002C0390E041E02817190609F440E001E0AF
:1025100010E09E012F5F3F4F65E373E087E00E946C
:1025200015122196E4E00C94F42CA7E0B0E0EBE95E
:10253000F2E10C94D82C86E0E1E7F4E0DE0111969C
:1025400001900D928A95E1F71F8247E050E065E225
:1025500073E0CE0101960E94302D41E0892B09F4F1
:1025600040E007E010E09E012F5F3F4F61E373E022
:1025700086E00E9415122796E4E00C94F42C0F9349
:102580001F93CF93DF93EC0144E050E06BE173E0E5
:102590000E94302D41E0892B09F440E004E010E076
:1025A0009E016EE073E082E00E941512DF91CF91F0
:1025B0001F910F9108954F925F927F928F929F92F9
:1025C000AF92BF92CF92DF92EF92FF920F931F9341
:1025D000CF93DF930F92CDB7DEB7C62E4A015901D4
:1025E000482E880F5508C2010E94402C782E88235F
:1025F00009F480C0C20133E0880F991F3A95E1F7D2
:10260000FC01E050FF4F438150E04115510511F0AE
:1026100041E050E080509F4FFC01648175816A5E0B
:102620007C4FCE0101960E943D2DF40140815181E5
:10263000628173812FB7F894809152049091530472
:10264000A0915404B09155042FBF841B950BA60B89
:10265000B70B84369105A105B10540F4B701C80157
:102660000E94EC089981891709F444C00C2C000CD5
:10267000DD08C6010E94402C782E811113C0712CF8
:10268000872D0F90DF91CF911F910F91FF90EF90C9
:10269000DF90CF90BF90AF909F908F907F905F9092
:1026A0004F900895C60123E0880F991F2A95E1F7FE
:1026B000FC01E050FF4F438150E0E416F50608F4BA
:1026C000A70180509F4FFC01648175816A5E7C4F39
:1026D000C5010E943D2DB701C8010E94EC089981F7
:1026E0008913CDCF0E943C08F401608371838283FB
:1026F0009383C6CFA701B801C5010E943D2DC0CF6D
:10270000A4E0B0E0E6E8F3E10C94D42C6B0184E0A3
:10271000E82EF12C07E113E09E012F5F3F4F4AE0C6
:1027200053E061E080E00E94DB12882361F0498180
:102730005A816B817C814093060350930703609319
:1027400008037093090340910603509107036091B9
:10275000080370910903F6014083518362837383F8
:102760002496E8E00C94F02C67EE7EEF90E080E099
:102770000E94922D60E082E090E00E94742D60E063
:1027800083E090E00E94742D1092F8021092F702FC
:1027900060E074E184E090E00E94922D60E086E0C9
:1027A00090E00E94742D6FEF87E090E00E94742DFE
:1027B00040E050E0BA0188E090E00E94862D60E0A1
:1027C0008DE090E00E94742D40E050E0BA0188E175
:1027D00090E00E94862D60E087E190E00E94742DD9
:1027E00040E050E0BA018CE190E00E94862D70E05C
:1027F00060E080E290E00E94922D40E050E0BA015B
:1028000088E190E00E94862D40E050E0BA018FE020
:1028100090E00E94862D40E050E0BA0183E190E014
:102820000E94862D08951F920F920FB60F921124C9
:102830002F933F934F935F936F937F938F939F93C8
:10284000AF93BF93EF93FF938091E10082FF09C0A4
:102850008091E20082FF05C08091E1008B7F809330
:10286000E1008091DA0080FF24C08091D80080FFD1
:1028700020C08091DA008E7F8093DA008091D900A9
:1028800080FF9DC080E189BD82E189BD09B400FE61
:10289000FDCF81E08093630480915604811109C0CB
:1028A0000E94DF060E9480078091E200846080938E
:1028B000E2008091E10080FF17C08091E20080FF7C
:1028C00013C08091E2008E7F8093E2008091E2004D
:1028D00080618093E2008091D80080628093D8006C
:1028E00019BC85E0809363048091E10084FF2BC0D4
:1028F0008091E20084FF27C080E189BD82E189BD2B
:1029000089B5982F917080FFFBCF8091D8008F7D83
:102910008093D8008091E1008F7E8093E1008091C8
:10292000E2008F7E8093E2008091E20081608093DC
:10293000E20080916404882309F447C084E0809316
:102940006304809163048091E10083FF27C080913C
:10295000E20083FF23C08091E100877F8093E10044
:1029600082E080936304109264048091E1008E7F82
:102970008093E1008091E2008E7F8093E20080915D
:10298000E20080618093E20042E060E080E00E942B
:102990004E078091F00088608093F000FF91EF91E6
:1029A000BF91AF919F918F917F916F915F914F9167
:1029B0003F912F910F900FBE0F901F90189519BC4B
:1029C000109263041092560474CF8091E30087FD47
:1029D00093E090936304B5CF78941F921FB61F9233
:1029E00011248F939F93AF93BF9380915204909142
:1029F0005304A0915404B09155040196A11DB11D3A
:102A00008093520490935304A0935404B0935504BC
:102A1000BF91AF919F918F911F901FBE1F901895EE
:102A20009C014FB7F8948091520490915304A09167
:102A30005404B09155044FBF821B930B08952FB7D8
:102A4000F8948091520490915304A0915404B09151
:102A500055042FBF08950E941F159C019091970364
:102A600080919803982B21F0309394032093930343
:102A70009091990380919A03982B21F030939203BF
:102A800020939103E0914D04F0914E04309749F06A
:102A900082E0809395030480F581E02D85E993E041
:102AA00009950895CF9310926703C6E0E6E9F2E036
:102AB000DF018C2F1D928A95E9F790E080E00E945B
:102AC000870890E080E00E9462081092F6020E945F
:102AD000370EE5E9F3E0DF011D92CA95E9F71092A0
:102AE0008E0310928F03109290030E942B15CF91AA
:102AF0000895AAE2B0E0EFE7F5E10C94D92C85E661
:102B000094E02091F100FC012193CF01F4E08D3697
:102B10009F07B9F780916604833009F470C0B8F458
:102B2000813009F447C0823009F4B1C08091E800D7
:102B300083FF7EC280916504909166049A3008F00C
:102B400077C2E92FF0E0E656F24D0C94212D8A3041
:102B500009F48CC08B3009F46FC0893039F780914B
:102B60006504813219F78091690490916A04029793
:102B7000E8F68091E800877F8093E8008091E80084
:102B800082FF38C09091F3008091F200029731F4F7
:102B90008091F100813011F0863021F48091F100B4
:102BA000809358048091E8008B778093E8000E941E
:102BB0002F07BCCF80916504813A09F0B7CF80918F
:102BC000E800877F8093E8008091690490916A040F
:102BD000892B61F468E089E594E070E00E94DB07EE
:102BE0008091E8008B778093E800A0CF60E090E0D0
:102BF00080E0F3CF809163048111C0CF97CF8091A3
:102C00006504813A09F092CF8091690490916A0439
:102C1000892B09F08BCF8091E800877F8093E800B3
:102C20008091E80080FFFCCF809161018093F100EA
:102C30008091E8008E77B9CF80916504813209F0E8
:102C400075CF8091690490916A04892B09F06ECF49
:102C50008091E800877F8093E8000E942F07809191
:102C60006704809361010E94521560CF80916504D2
:102C7000813209F05BCF8091E800877F8093E80084
:102C80000E942F0780916804809357044FCF809152
:102C90006504813A09F04ACF8091E800877F8093EC
:102CA000E8008091E80080FFFCCF80915704BECF00
:102CB000803899F0823809F0BBC1809169048F7027
:102CC000873008F0B5C18093E9008091EB0085FB67
:102CD000882780F91092E90006C0809161049091E4
:102CE0006204911182609091E800977F9093E800D0
:102CF0008093F1001092F1008091E8008E7794C1EA
:102D0000882309F482C1823009F092C1809167045E
:102D1000811185C1809169048F702FEF280F2630B3
:102D200008F086C18093E9002091EB0020FF77C175
:102D3000933031F48091EB0080628093EB006FC19F
:102D40009091EB0090619093EB0021E030E001C0A6
:102D5000220F8A95EAF72093EA001092EA00809108
:102D6000EB008860EACF811163C1109167041F777F
:102D70008091E3008078812B8093E3008091E800CC
:102D8000877F8093E8000E942F078091E80080FFF2
:102D9000FCCF8091E30080688093E30082E0111112
:102DA00083E08093630444C18058823008F040C1BE
:102DB00080916704909168048C3D23E09207A1F50F
:102DC00083E08A838AE289834FB7F894DE01139601
:102DD00020E03EE051E2E32FF0E050935700E49111
:102DE00020FF03C0E295EF703F5FEF708E2F90E001
:102DF000EA30C0F0C7968D939D932F5F243159F729
:102E00004FBF8091E800877F8093E8006AE270E01E
:102E1000CE0101960E94DB078091E8008B778093BA
:102E2000E80006C1C096E7CF4091690450916A045A
:102E3000292F33272330310509F444C078F5213098
:102E4000310509F46FC08BE390E0E5E3F7E0223051
:102E5000310509F0EDC02091E800277F2093E800BC
:102E600020916B0430916C048217930708F49C0145
:102E700040E02115310509F064C0411162C0809124
:102E8000E80082FDC9CF80916304882329F2853050
:102E900019F28091E80083FFF2CFBECF21323105D5
:102EA000A9F12232310509F0C3C04115510509F4D9
:102EB00043C04130510509F0BBC08BE790E0EAE721
:102EC000F6E0C9CF992781309105C1F0009759F0FC
:102ED000029709F0ADC0E2E8F7E0E4918E2F90E0B0
:102EE000E2E8F7E007C0E2ECF7E0E4918E2F90E033
:102EF000E2ECF7E0009709F49BC0ADCFE8EAF7E019
:102F0000E4918E2F90E0E8EAF7E0F4CF4115510507
:102F100071F04130510509F08BC089E090E0E0E6A6
:102F2000F7E099CF82E190E0E0E7F7E094CF89E025
:102F300090E0E7E4F7E08FCF80E490E0E5EFF6E0A3
:102F40008ACF80916304882309F466CF853009F421
:102F500063CF8091E80083FD5FCF8091E80082FD20
:102F60008ECF8091E80080FF84CF9091F300809114
:102F7000F2002115310519F08830910550F041E03B
:102F8000089709F040E08091E8008E778093E80090
:102F900070CF44914093F100319621503109019650
:102FA000E8CF803809F044C08091E800877F8093A3
:102FB000E800809164048093F1009ECE811138C0B6
:102FC000109167041230A0F58091E800877F80930C
:102FD000E800109364040E942F07112311F084E08D
:102FE00005C08091E30087FDFACF81E08093630400
:102FF00042E061EC81E00E944E0742E261EC82E037
:103000000E944E078091630413C080916704813051
:1030100079F481E0933009F080E0809362041092AB
:10302000E9008091E800877F8093E8000E942F07E5
:103030008091E80083FF0AC08091E800877F809339
:10304000E8008091EB0080628093EB00AA96E3E0B9
:103050000C94F52C1F920F920FB60F9211242F9300
:103060003F934F935F936F937F938F939F93AF9310
:10307000BF93CF93DF93EF93FF93D091E900DF707D
:103080008091EC00C82FC17080FDC0E81092E9006B
:103090008091F000877F8093F00078940E947915EA
:1030A0001092E9008091F00088608093F000CD2BB1
:1030B000CF70C093E900FF91EF91DF91CF91BF9165
:1030C000AF919F918F917F916F915F914F913F91C0
:1030D0002F910F900FBE0F901F9018950E945215C0
:1030E0002FEF84E39CE0215080409040E1F700C046
:1030F000000088E19CE00FB6F894A89580936000EA
:103100000FBE90936000FFCF662309F45DC08D3C35
:1031100041F40E94CA098195809398030E942B155F
:1031200008958E3C19F40E94CA09F6CF8F3C31F401
:103130000E94CA09819580939703F0CF803D19F4CE
:103140000E94CA09F8CF893D29F40E94A8098093FA
:103150009903E4CF8A3D21F40E94A8098195F7CF15
:103160008B3D31F40E94A809819580939A03D6CFB4
:103170008C3D19F40E94A809F8CF9FE2980F98306F
:1031800070F4815D990B21E030E001C0220F8A9537
:10319000EAF780919603822B80939603BFCF8D3DF3
:1031A00031F480919003816080939003B7CF8E3D7E
:1031B00021F4809190038260F7CF8F3D09F0AECF6C
:1031C000809190038460F0CF409197038D3C59F437
:1031D0008091980387FF0DC01092980341110BC096
:1031E00010928E0308C08E3C81F4809198031816CB
:1031F0009CF3442381F08091990390919A03892B49
:1032000009F08CCF10928F0389CF8F3C49F447FF90
:10321000F0CF10929703809198038111ECCFE0CF0B
:10322000803D19F41416ACF3E4CF90919903893DD5
:1032300029F41916F4F610929903DBCF8A3D19F49C
:1032400097FFD7CFF8CF90919A038B3D29F497FF42
:10325000D0CF10929A03CDCF8C3D19F41916CCF330
:10326000C8CF9FE2980F983090F4815D990B21E0D0
:1032700030E0B90102C0660F771F8A95E2F7CB01F3
:10328000809590919603892380939603B2CF8D3DCC
:1032900031F4809190038E7F80939003AACF8E3D6E
:1032A00021F4809190038D7FF7CF8F3D09F0A1CF5E
:1032B000809190038B7FF0CF8823D1F19CEF980F02
:1032C000913A78F4E6E9F2E09191891303C0DF01C5
:1032D00011971C9292E0EC39F907B1F70E94370E72
:1032E000089590E2980F983050F4877091E001C0F3
:1032F000990F8A95EAF7892F0E942E0CEFCF9BE554
:10330000980F933028F490E080E00E948708089599
:1033100098E5980F9B3128F490E080E00E946208C5
:10332000089593E3980F933118F460E00E94841895
:103330000895CF93C82F8823B1F08CEF8C0F813A7A
:1033400000F5E6E9F2E08CE992E0DF012D91C21789
:1033500061F08A179B07D1F76C2F84E992E00E94F5
:1033600048080E94370ECF9108952191C21303C0DF
:10337000DF0111971C928E179F07B9F70E94370E35
:10338000EBCF80E28C0F883068F4C77021E030E02A
:1033900001C0220FCA95EAF780916703822B8093C0
:1033A0006703DFCFEBE5EC0FE33040F4F0E0E459E6
:1033B000FE4F808190E00E948708D5CFE8E5EC0FB2
:1033C000EB3150F4F0E0EE0FFF1FE159FE4F80812A
:1033D00091810E946208C7CF83E38C0F833118F676
:1033E00061E08C2F0E948418BECF1F93CF93DF9390
:1033F000182FEB010E949919209739F4812F0E9410
:103400005C19DF91CF911F9108958FE99FE001979B
:10341000F1F700C000002197EFCF0F931F93CF93D8
:10342000DF93C62FD42F022FFC0182818823A9F0BD
:1034300060936F040E941F1590936E0480936D0437
:10344000C77081E001C0880FCA95EAF70E947B0E21
:10345000DF91CF911F910F91089580916F046813B0
:1034600034C080916D0490916E040E941015883CC8
:10347000910558F510E21D0FCD17B9F080E28C0FC1
:10348000883040F4C77081E001C0880FCA95EAF720
:103490000E94740E183048F481E09D2F977001C08F
:1034A000880F9A95EAF70E947B0E70E060E0802F0B
:1034B0000E94F519183060F6D77081E001C0880FBE
:1034C000DA95EAF70E94740EC3CFC77081E001C09D
:1034D000880FCA95EAF7F6CF81110CC070E0662319
:1034E00031F060E089EA0E94F51981E0089560E01A
:1034F0008AEAF9CF8130C9F770E0662319F060E0FD
:103500008EE4F1CF60E08BE4EECFA1E0B0E0EBE839
:10351000FAE10C94D32CEE24E394F12C00E213E0B6
:103520009E012F5F3F4F42E153E064E083E00E9441
:10353000DB12C82E882339F100E080E01DC0D09056
:103540003F03D00E2D2D30E0A901435A5C4F7A0184
:10355000E1E0F0E0EC0FFD1FE00FF11D1081FA013A
:103560009081191BB12E1B149CF0912F17FD90E038
:10357000191B111118C00F5F90913E030917F8F243
:1035800081110E94250C8C2D2196E9E00C94EF2CE2
:10359000BA94F70180818F5F808360E08D2D0E9457
:1035A0006C1A8C2DE0CF1F5FF701808181508083E2
:1035B00061E08D2D0E946C1A8C2DDBCFA5E0B0E070
:1035C000E4EEFAE10C94D02C7C01FC01838194811F
:1035D000892B31F08081918189238F3F09F0EBC3E2
:1035E0002596ECE00C94EC2C0E945F0C182F682FB1
:1035F00089819A810E94D30C69817A81812F0E94EE
:10360000E80A8C01FC01E851FC47E730F10588F538
:10361000EC55F24D0C94212D26E241EE61EEC701EE
:103620000E940D1A8091ED028770D1F2F70182811C
:103630008823B1F280914B0382FFD2CF82E00E94B7
:10364000200DCECF27E245EE65EEE9CF26E241EE32
:1036500060EEE5CF27E245EE64EEE1CF26E241EEF3
:1036600062EEDDCF27E245EE66EED9CF28E241E0FB
:10367000EBCFF7018281882309F4C4C310926F0451
:10368000C8019057839708F0A7C384E090E00E9498
:103690005E2D90934B0380934A03F801E150F0476D
:1036A000E232F10520F4E555F24D0C94212D809184
:1036B0004A03816080934A0395C080914B038860E0
:1036C00080934B038FC080914A038260F3CF809137
:1036D0004A038460EFCF80914A038860EBCF8091EA
:1036E0004B038160EDCF80914B038260E9CF8091E5
:1036F0004A038061DFCF80914A038062DBCF8091F3
:103700004A038064D7CF0E94521580914A03806893
:10371000D1CF80914A038C60CDCF80914B038360E1
:10372000CFCF80914A038E7FC5CF80914B03877F97
:10373000C7CF80914A038D7FBDCF80914A038B7F95
:10374000B9CF80914A03877FB5CF80914B038E7F9D
:10375000B7CF80914B038D7FB3CF80914A038F7E8B
:10376000A9CF80914A038F7DA5CF80914A038F7B9B
:10377000A1CF0E94521580914A038F779BCF8091F1
:103780004A03837F97CF80914B038C7F99CF8091A1
:103790004A0382FB992790F921E0922790FB82F956
:1037A00090FB83F987CF80914B03982F9095917070
:1037B0008E7F892B90FB81F983CF90914A03892FCB
:1037C0008F7B96FF806476CF0E94521590914A03BA
:1037D000892F97FB87F980586DCF61E08EE090E0EC
:1037E0000E94742D60914A0370914B0384E090E035
:1037F0000E94922D0E94521515CF60E0EFCF90915C
:103800004A03892F8F7E94FF806154CF90914A03A1
:10381000892F8E7F90FF81604DCF90914B03892F30
:10382000877F93FF88604CCF85E3F5C28091710458
:1038300091E0892780937104109262018091700455
:10384000816080937004EECE41E859E06BE879E046
:103850000E940209E7CE4BE859E061E879E0F8CF31
:103860004DE659E067E779E0F3CF47E759E06DE6C9
:1038700079E0EECF43E559E060E679E0E9CF40E654
:1038800059E063E579E0E4CF49E359E066E479E0A3
:10389000DFCF46E459E069E379E0DACF4DE159E062
:1038A0006BE279E0D5CF4BE259E06DE179E0D0CF22
:1038B00081E00E94BD06B6CE0E945215FFEF24E3C0
:1038C0003CE0F15020403040E1F700C000000E9491
:1038D0004F0F6FEF7FEF90E080E00E94922D0E94EB
:1038E0006E1880914B0382FB882780F991E089272D
:1038F0000E94A811F701828100811181882309F4B7
:1039000049C0C8010E945F0CD82E682FC8010E94D0
:10391000D30CB8018D2D0E94E80A0E94070B8C0180
:10392000882EF701A280958092943FE093228091A7
:10393000ED028770F1F0CA2CAA20E1F0812F807F80
:10394000803451F080E2800F883098F0911004C0EC
:10395000812F807E803269F080914B0382FF09C005
:1039600082E00E94200D8091ED028770CC24C394E8
:103970008111C12CB12EB2942FE0B222FBE0FB15D5
:1039800008F474C0EB2DF0E0E353F24D0C94212DBC
:1039900080E0AECFC8010E94A00CD82EBACF212F54
:1039A0002F70D22E107F19F0D29490EFD922AA2036
:1039B000B9F0DD2069F080E2800F883010F08110CE
:1039C00009C080916703D82AD09267030E94370EFE
:1039D000802F4AC08091F602D82AD092F602F6CF04
:1039E000802F0E945C19DD2009F440C0005E083081
:1039F00010F0811004C08D2D0E942E0C06C0D094B2
:103A00008091F602D822D092F6020E94370E2EC084
:103A1000312F3F70D32E107F103219F0D29480EFE7
:103A2000D822882089F081E0881609F47CC0AA2079
:103A300009F486C0992009F47CC0F701858180FFD4
:103A4000C7CF8F70858375C020914B0322FD43C083
:103A5000AA20D9F1DD2039F080916703D82AD092CD
:103A600067030E94370E80E00E949919EB2DE85001
:103A7000FF0B349710F40E94F00FCC20A9F0809136
:103A8000ED0280FD11C0F70112828595859585951F
:103A90000E943C0DC7010E94DE1A8091ED028595BF
:103AA000859585950E940E0D85E0F701DE01119642
:103AB00001900D928A95E1F709811A81C8010E944F
:103AC000A00CB8010E94E80A8BCD80E00E945C192E
:103AD000DD2061F290CFAA20A1F0909168038D2D96
:103AE000892B911003C00E947B0EC0CFE1E09E1293
:103AF000FACF22FFBBCF891709F4B8CF80936803B0
:103B0000B5CF911006C00E94280C8D2D0E94740E16
:103B1000ADCFF1E09F1609F4A9CF8D2D0E94740E50
:103B20000E94280CA3CFAA2031F025E0291508F423
:103B30009DCF8D2DD8CF34E0391508F497CFE5CF40
:103B4000992019F3F9E38F122FC12FEF37EE83E09D
:103B5000215030408040E1F700C0000025C1812F96
:103B600086958695837061F0813009F07FCFC8011A
:103B70009370A11002C080E090E00E94620876CFAE
:103B8000C8019370A11002C080E090E00E948708F5
:103B90006DCF6A2D802F0E94841868CF812F83708B
:103BA00009F03FC0A11062CF402F42954695477063
:103BB000440F440F802F8F7090E0042E02C0880FB6
:103BC000991F0A94E2F730E020E004FF09C02FE0DB
:103BD00030E002C0220F331F4A95E2F7209530955E
:103BE000169516951370123099F078F44091F702FB
:103BF0005091F802113039F0822B932B84239523B6
:103C00000E944C0D33CF842B952B822B932BF8CF16
:103C1000822B932B2091F7023091F8028227932771
:103C2000EFCF8695AA2011F0812F8170882309F4A7
:103C30001DCF402F429546954770440F440F802F6B
:103C40008F7090E0042E02C0880F991F0A94E2F74B
:103C500030E020E004FF09C02FE030E002C0220F76
:103C6000331F4A95E2F720953095169516951370F7
:103C7000123099F078F44091650350916603113049
:103C800039F0822B932B842395230E94090DEECECD
:103C9000842B952B822B932BF8CF822B932B209167
:103CA00065033091660382279327EFCF1F70AA2008
:103CB00029F0812F0E943C0D802F15CF802F0E946C
:103CC000740E812F0E940E0DD1CE802F92EF891697
:103CD00099F1981570F0E0EF8E16D1F0F1EF8F1694
:103CE00091F0AA2009F45BC0911072CE812F8F71E0
:103CF00027C023EF821639F134EF8312F2CF80917F
:103D00004B0382FD2EC0812F8F71AA20D9F218C0DB
:103D1000AA2069F084E0891508F4A8CE1F7181E01B
:103D200090E002C0880F991F1A95E2F7B8CF95E08E
:103D3000991508F49BCEF2CF812F8F71A110C2CFBD
:103D40000E943C0D93CE90E080E0AA2009F49DCF24
:103D50001F7181E090E002C0880F991F1A95E2F769
:103D600094CFAA2089F01F71812F0E943C0D809171
:103D70004B0382FF07C0E8E01E9FC001112483604F
:103D80008093ED02812FDCCF81E00E94200DF1E0D5
:103D9000F91508F06BCE82E00E94200D67CE9920C5
:103DA00039F0893309F4D1CE802F0E945C195ECEA0
:103DB000812F8F7187CF85E0DE01119601900D92E2
:103DC0008A95E1F7F701228189819A8121110CCC32
:103DD0000E94A00C182F10CC0631FCE71F0749F5F4
:103DE000809167038A7A91E009F490E090939C02B5
:103DF00069E2811165E384E992E00E9448080E942B
:103E0000370E10CC06312CE7120799F580919C02F1
:103E100081110ACD89E2E6E9F2E02CE932E09191E4
:103E2000891303C0DF0111971C922E173F07B9F7C2
:103E3000E6CF03303CE7130709F44BCD50F40115EE
:103E40009CE7190709F438CD01301C4709F447CD28
:103E500051CD0B35FCE71F0709F49ACD0C352CE743
:103E6000120709F43ECD0A351C4709F043CD81E025
:103E70003FCD809167038272F801E052F847E53147
:103E8000F10508F037CDE752F24D0C94212D1F9328
:103E9000CF93DF938091BA02807F09F04BC080916D
:103EA000B702882309F446C08091EC02C091BB029E
:103EB0004091B5025091B6026091B8027091B9027A
:103EC000D42FD52316E0C817A9F190E0611571052C
:103ED000A9F1DF3F99F1189FF001199FF00D11240E
:103EE000DF01A454BD4F11962C911197251326C0C4
:103EF0002C91241323C012962C91129721111EC0CD
:103F000013962D913C91261B370B283C3105B0F4BC
:103F10008091BA028F7080618093BA02EF53FD4F97
:103F200080818F708061808385EB92E00E94DE1A31
:103F30000E94550CDF91CF911F91089501968770D3
:103F4000C2CFA1E1B0E0E7EAFFE10C94D02C8C01F4
:103F500085E0F801DE011D9601900D928A95E1F74A
:103F6000F801E28085EB882E82E0982E4091B8021D
:103F70005091B9024115510509F430C19091B50233
:103F80002091B602892F82238F3F09F427C1D08068
:103F9000C180A380B480F090B702B501641B750B9B
:103FA000FF2009F4E7C08091BA02382F307F683CC7
:103FB000710508F0ABC0311178C0FE2C2C1114C073
:103FC0009D1112C0E11010C08F7080618093BA0201
:103FD000C4010E94DE1A8091BA02F80185838F2DF8
:103FE0006196ECE00C94EC2CA114B104C9F18D2D78
:103FF0008C218F3FA9F181E08E2580FF05C04E2DD9
:104000006C2D8D2D0E94350CA114B10459F18D2D0C
:104010008C218F3F39F181E08E25F82FF170BF2E72
:1040200080FF39C04E2D6C2D8D2D0E94350CA82E91
:10403000811131C0DD86CE868D859E850E94930CD0
:10404000292F22952F70243078F49F702230A8F009
:104050009923B9F0F8019581907F99F4FA2CBFCF9C
:1040600080E0CBCF80E0D9CF2A5F2F70223068F07C
:10407000C8010E94DE1AAB2CF1CF992311F08823DE
:1040800069F3805E883050F3F3CF803F38F3815F6F
:10409000833070F7E3CFEE2009F4A1CF8091BA020C
:1040A00081608093BA02F12C9ACF2C1105C09D112A
:1040B00003C0EE2009F477C0C8010E94510D882387
:1040C00009F1EE20F9F08091BA02803270F020916F
:1040D000B5023091B60238872F831986BB86AA862F
:1040E0008C87CE0107960E94DE1A86E0F801A5EBC8
:1040F000B2E001900D928A95E1F70E94471FFF24DC
:10410000F3946DCFC8010E94DE1AF9CF31110AC0B5
:1041100085EB92E00E94DE1A86E0F40111928A9506
:10412000E9F7C1CF2C110EC09D110CC0E1100AC0DF
:104130008583C8010E94DE1A86E0F40111928A95F7
:10414000E9F74DCFC8010E94510D8823D9F2EE2026
:10415000C9F28091BA02803240F22091B5023091CA
:10416000B6023A8329831B82BD82AC828E83CE0144
:104170000196B9CF683C7105F8F6FE2CEE2011F2DD
:104180002C111EC09D111CC08091BA0280FD0FC071
:10419000982F907F61F08583903F31F0982F907F2A
:1041A000905F8F70892B8583C8010E94DE1A86E09C
:1041B000F801A5EBB2E001900D928A95E1F70FCFDF
:1041C000C8010E94510D811190CF8091BA02816087
:1041D0008093BA02C8010E94DE1A01CFEE2009F4D2
:1041E00091CFC8010E94510DF82E882309F48ACF7F
:1041F00086E0F801A5EBB2E001900D928A95E1F717
:104200008091B5029091B6020E94930C0E94471FC4
:10421000E6CEA7E1B0E0EFE0F1E20C94D92C4B8BB5
:104220005C8B6D8B7E8B8F8B61111092F6021A8ADC
:10423000198A85E0FE017396DE011D9601900D92AC
:104240008A95E1F786E0FE013D96DE011796019022
:104250000D928A95E1F7CE0107960E94A11F811168
:1042600012C086E0FE013796DE01119601900D9294
:104270008A95E1F78A859B85892B29F088859F811E
:1042800089238F3F81F516E08091EC029091BB026B
:10429000891317C06796E3E00C94F52C96E0929F83
:1042A000D001939FB00D1124A454BD4FFE0131964F
:1042B00001900D929A95E1F78093BB020E94550CF4
:1042C000E2CF819FC001112484549D4F0E94A11F01
:1042D000882301F38091EC0290E001968770992782
:1042E0008093EC02D1CF2091BB0230E0C90101964E
:1042F000877099274091EC024817190679F60E94B9
:1043000052151092BB021092EC0286E0E5EBF2E04F
:10431000DF011D928A95E9F7B6CFACE0B0E0E3E9A2
:10432000F1E20C94CF2C8E010F5F1F4F88E0D80173
:104330001D928A95E9F786E4C82E81E0D82EF12CEB
:10434000E12CAA24A394B12C26E4822E21E0922E03
:10435000F60181916F018F3F09F442C0F894E82F74
:10436000E295EF70F0E021A18F70A50102C0440F2B
:10437000551F8A95E2F7CA01922F982B91A392A11B
:104380008095892382A3789400C0E0E4F1E0712C49
:1043900031E021912F3F09F46BC0A22FA295AF709D
:1043A000B0E090968C9190E02F7002C09595879523
:1043B0002A95E2F780FD5CC0832F782A330F8E1692
:1043C0009F0639F7F601319780818F3F11F00E94E7
:1043D000EC0950EA5A95F1F7F801EE0DFF1D7082D5
:1043E0008FEFE81AF80AA4E0EA16F10409F0B0CF5A
:1043F00048E050E0B80180E493E00E94302D00973F
:1044000041F028E0F801A0E4B3E001900D922A9574
:10441000E1F700914903892B69F181E08093FD0266
:104420000E941F159093FC028093FB028091FB0277
:104430009091FC020E941015059700F110E0045BBA
:104440001C4F44E050E060E473E0C8010E94302D4E
:10445000B12C892B51F084E0E0E4F3E0D801019025
:104460000D928A95E1F7BB24B3941092FD0207C028
:1044700080E0A3CF8091FD028111D8CFB12C0E94A2
:10448000CD0FA82EE0914903882309F49FC0198617
:104490001A861B861C860E2F10E0045B1C4F809131
:1044A00039038A3008F05CC040E853E1BE01675F21
:1044B0007F4FC8010E949A0F882309F476C04FEB02
:1044C00052E1BE01675F7F4FC8010E949A0F8823A7
:1044D00009F46BC045E85AE1BE01675F7F4FC80130
:1044E0000E949A0F882309F460C04FEB51E1BE018E
:1044F000675F7F4FC8010E949A0F882309F455C057
:1045000045E952E1BE01675F7F4FC8010E949A0FE3
:10451000882309F44AC046E752E1BE01675F7F4F36
:10452000C8010E949A0F882309F43FC010923903F2
:104530008091480390E044E050E0BE01675F7F4F08
:10454000845B9C4F0E94302D21E020930403892B33
:10455000F1F4A12C8A2D8B292C96EDE00C94EB2CF8
:104560008091FE029091FF020E941015843F9140BD
:1045700008F09ACF80910403882359F3FE013996FD
:1045800084E0DF011D928A95E9F710920403E0911F
:104590004803F0E0E45BFC4F89859A85AB85BC85D8
:1045A00080839183A283B383D5CF809139038F3FDA
:1045B00031F08F5F809339038A3008F4B9CF0E94BD
:1045C0001F159093FF028093FE02D4CF0091480301
:1045D00010E0045B1C4FF0E0E45BFC4F84E0A7E1DB
:1045E000B3E001900D928A95E1F764E070E087E115
:1045F00093E00E94EC088093160384E0EBE1F3E083
:10460000D80101900D928A95E1F74091620350E044
:104610006091610370E0635A7C4FCE0109960E945D
:104620003D2D89858093200361E070E0CE010996DD
:104630000E94EC0880931F03C0902103D0902203B6
:10464000E0902303F09024038091000390910103F4
:10465000A0910203B0910303C816D906EA06FB062F
:10466000D1F0C0920003D0920103E0920203F092D5
:1046700003030E94CD0F81110EC00E943C08C61A90
:10468000D70AE80AF90AC0923A03D0923B03E092B3
:104690003C03F0923D0386E0E5E2F3E0A1E7B4E0FD
:1046A00001900D928A95E1F780912C03882319F0EF
:1046B0000E94CA0E4FCF0E94AF0E4CCFA5E0B0E0D3
:1046C000E4E6F3E20C94D82C0E941F158C01809133
:1046D000F9029091FA0280179107A1F08FEF898378
:1046E0008A831B820E941F158160782F9D838C8393
:1046F00049815A816B818D810E9409211093FA02B0
:104700000093F9022596E4E00C94F42C1F921FB656
:104710001F9211248F939F93AF93BF938091510465
:10472000811113C08091520490915304A0915404BC
:10473000B09155044196A11DB11D809352049093F0
:104740005304A0935404B0935504BF91AF919F912B
:104750008F911F901FBE1F901895CDB7DEB72D9774
:104760000FB6F894DEBF0FBECDBF85B7806885BF9A
:1047700085B7806885BF84B7877F84BF0FB6F894FC
:10478000A89580916000886180936000109260001D
:104790000FBE80E890E00FB6F8948093610090938C
:1047A00061000FBE8AEE99E090939302809392028B
:1047B0000E94DF060E9480078091E200846080935F
:1047C000E2007894809163048823A1F01091E900BD
:1047D0001F709091EC00892F817090FD80E8182B5C
:1047E0001092E9008091E80083FD0E9479151F7006
:1047F0001093E90082E084BD93E095BD9AEF97BDE8
:1048000080936E0010923A0310923B0310923C0387
:1048100010923D0384988C988FE891E00197F1F70E
:1048200000C000008FB18295817080934A010E9480
:10483000CD0F81110E94542B90914A0181E098275D
:1048400090936103A82FA91BA0933F0390914A0165
:104850008093620390914A0180933E0380914A01C4
:10486000811106C086EF8093540187EF8093530136
:1048700020915401E22FE295EF70F0E061A12F70DA
:1048800081E090E0AC0101C0440F2A95EAF7342F93
:104890003095362331A322A1242B22A3209153014A
:1048A000E22FE295EF70F0E031A12F7001C0880F88
:1048B0002A95EAF7982F9095932391A392A1892B9B
:1048C00082A38FE891E00197F1F700C000001091FA
:1048D000620363E673E044E551E083E5E82E81E09E
:1048E000F82EFB0128C0DA012D91AD01822F8295AF
:1048F0008F7090E0DC0190968C9190E02F7002C058
:10490000959587952A95E2F78170D7019D917D0154
:10491000292F22952F7030E0D90190962C9130E00C
:104920009F7002C0359527959A95E2F790E020FD9B
:1049300092E0892B81938E2F861B8117A0F28091A4
:104940004A01811120C081E38093460183E3809373
:10495000470182E38093480186E38093490186E022
:10496000E6E6F1E0DE01119601900D928A95E1F7FD
:10497000FE013196A0E4B1E0CE01079621912D937E
:104980008E179F07D9F780914A0194E0811190E03A
:104990009093490384E0891B8093480306E411E067
:1049A000EAE4EE2EE1E0FE2EF80181918F018F3FC7
:1049B00011F00E94EC09E016F106B1F700E411E0F5
:1049C000D8018D918D018F3F11F00E94EC09B1E06B
:1049D00006341B07A9F788E0ECE4F3E0DF01282F99
:1049E0001D922A95E9F7E0E4F3E0DF011D928A9534
:1049F000E9F790E080E00E945E2D873E9E4F11F027
:104A00000E94B41382E090E00E94562D80935403DC
:104A100084E090E00E945E2D90934B0380934A03C4
:104A20000E948D21EFEFF6E721E0E150F0402040B9
:104A3000E1F700C000000E948D217C990FC0E4E0E6
:104A4000F0E0E45BFC4F808185FF0AC06FEF7FEFF1
:104A500090E080E00E94922D0E944F0FE0E0F0CFA6
:104A600083E090E00E94562D90E00E944C0D90E073
:104A700080E00E945E2D873E9E4F21F00E94B4137D
:104A80000E948D1181E08093700446E050E06CE15B
:104A900070E081E794E00E94462D109270048091AE
:104AA00071048C7F11F40E948D1183E0809389033F
:104AB00080E2809377040E940E2A6DE070E08FE31D
:104AC00092E00E94850E892BE9F58091890363E0CD
:104AD00070E081FD9AC08CE392E00E94850E892BE4
:104AE00089F56DE070E08CE292E00E94850E892BE2
:104AF00049F50E943C08605A75418F4F9F4F609363
:104B00004504709346048093470490934804EAE771
:104B1000F4E080E092E0DF019C011D9221503040E2
:104B2000E1F7F0938106E09380068FEF9FEF90937B
:104B300079048093780481E080934A048093490447
:104B400010928A030E94CD0F811102C00E94572B40
:104B50008BE491E090934E0480934D0470E4672EB3
:104B60008091630400E112E1853009F48CC00E9459
:104B70008D2155E5E52E53E0F52E6CE4C62E63E05D
:104B8000D62ED601F70191918D9123E0ED35F207F4
:104B900009F483C09817B9F30E94CD0F882E10E056
:104BA000D6010D916D01F70191907F01901629F1C9
:104BB000B12CAA24A3949026892D8A21B1F08820B3
:104BC000A1F0BF82188791E08A2D802309F490E03C
:104BD00099870E941F158160782F9B878A874F8154
:104BE000588569858B850E940921B394AA0CF6E04B
:104BF000BF12E2CFF701319700831F5F183081F6B3
:104C00000E943C08EE24E3944DC089E392E065CF16
:104C100080916304843039F10E941B100E94AF0E12
:104C20001092510488E190E00FB6F894A895809313
:104C300060000FBE6092600083B7817F846083BF95
:104C400083B7816083BF7894889583B78E7F83BF55
:104C50000FB6F894A89580916000886180936000F9
:104C6000109260000FBE80916204882361F00E9460
:104C70008D21ECE4F3E081918111B0C3A4E5B3E0B0
:104C8000AE17BF07C1F780916304853009F4C0CF28
:104C90000E9452150E94F00F6ACF98137DCF0E9498
:104CA0005E23E12C0E94CD0F0E941B10C12CF12C21
:104CB00080916203C81608F483C0F1100E94250C8D
:104CC00080914A04882309F4ACC180918B039091B0
:104CD0008C030E941015C29708F483C10E941F150F
:104CE00090938C0380938B038AE794E090938106E2
:104CF000809380060E94CD0F882309F479C260E872
:104D000070E08CE492E00E94AC0880917704F4E0BB
:104D10008F9FC0011124811522E0920714F090E0CA
:104D200080E086589B4F90938106809380068CECA0
:104D300092E00E94290E82E193E00E94290E809168
:104D4000650390916603009709F4C1C081FFB8C064
:104D500082E093E00E94290E82E193E00E94290EF6
:104D60001091680380916703182B012F0878147441
:104D7000002309F4B2C08BE393E00E94290E84E380
:104D800093E0112309F4B1C086E393E00E94290E59
:104D90008DE293E0111102C08AE293E00E94290E95
:104DA000002309F4A8C087E293E00E94290E82E262
:104DB00093E00E94290E1111A8C088E193E0A7C0DA
:104DC0000C2D10E0F801EC5AFE4F8081E82FE2959F
:104DD000EF70F0E0E0A1F0E08F7002C0F595E7958C
:104DE0008A95E2F7E170D801AD5ABE4F2C91A22FFF
:104DF000A295AF70B0E090968C9190E02F7002C0B9
:104E0000959587952A95E2F780FD52C080E08E2B1C
:104E1000D801AD59BC4FEC919E2F9370891709F4BE
:104E200045C0EE0FEE0FE82BEC93D0906103DC0C45
:104E3000EF70F0E0E955FE4F015A1C4F8081D80118
:104E40009C91890F8C93B12C843084F0ED2DF0E08F
:104E5000E35AFC4F80818F5F80830E94CD0FB82E74
:104E6000882341F160E08D2D0E946C1AF801808149
:104E70008D3F84F4ED2DF0E0E35AFC4F80818150AA
:104E800080830E94CD0FB82E8823B9F061E08D2D6C
:104E90000E946C1AD8018C91082E000C990B64E0CA
:104EA00070E00E940D2DF8018083FB28C39400CF91
:104EB00082E0ADCFBB24B394D9CFBB24B394EACF67
:104EC00082FF03C082EF92E045CF80FF03C082EEF5
:104ED00092E040CF82ED92E03DCF88E393E00E94E4
:104EE000290E111105C080E393E00E94290E54CFD2
:104EF00082E393E04BCF84E293E00E94290E1123DA
:104F000089F180E293E00E94290E8BE193E00E94F8
:104F1000290E1091680380916703182B012F0171EE
:104F20001272002321F181E693E00E94290E8AE5A6
:104F300093E0112321F18CE593E00E94290E83E593
:104F400093E00E94290E002311F18DE493E00E946A
:104F5000290E88E493E00E94290E111123C08EE3EC
:104F600093E022C08EE193E00E94290E26CF8EE5C9
:104F700093E00E94290E111107C086E593E00E947C
:104F8000290E80E593E0DDCF88E593E0D6CF8AE473
:104F900093E00E94290E112309F425C186E493E0D1
:104FA0000E94290E81E493E00E94290E0E94F00FD6
:104FB000182F80E793E010FF02C083E793E00E9480
:104FC000290E8AE693E011FF02C08DE693E00E946D
:104FD000290E84E693E012FF02C087E693E00E9468
:104FE000290E8091780490917904892B09F007C1EA
:104FF000809149048823A9F00E943C08009145044F
:10500000109146042091470430914804601B710BB5
:10501000820B930B6F3F7F4F8F4F9F4710F40E947F
:10502000AF0EE11001C0F1100E94CA0E86E0E5E962
:10503000F3E0DE01119601900D928A95E1F710924E
:105040009703109298031092990310929A038B8100
:105050009C81892B09F44AC0809193039091940319
:105060000E9410159C0190918E03992309F4D1C1DF
:1050700025313105D8F19F3F19F09F5F90938E0342
:105080001B81112359F00E94CA099FEF11160CF4DD
:1050900091E0899F802D1124809397031C81112317
:1050A00059F00E94CA099FEF11160CF491E0899FF4
:1050B000802D112480939803309197033323B1F00E
:1050C00020919803222391F045EB3403C001112471
:1050D000992309F473C19093970345EB240390013E
:1050E0001124332309F46EC1309398038D819E817E
:1050F000892B09F44AC080919103909192030E94F8
:1051000010159C0190918F03992309F47DC12135DD
:105110003105D8F19F3F19F09F5F90938F031D8158
:10512000112359F00E94A8099FEF11160CF491E089
:10513000899F802D1124809399031E81112359F09A
:105140000E94A8099FEF11160CF491E0899F802D11
:10515000112480939A03309199033323B1F0209165
:105160009A03222391F045EB3403C00111249923C3
:1051700009F42CC19093990345EB24039001112469
:10518000332309F427C130939A0346E050E0BE016F
:105190006F5F7F4F85E993E00E94302D892B61F48A
:1051A0008091970390919803892B90919903892B73
:1051B00090919A03892B11F00E942B1586E0FE0135
:1051C0003196A5E9B3E001900D928A95E1F70E942E
:1051D000F00F90918D03891709F4C2CC80938D0351
:1051E0000E943C08BDCC84E493E00E94290EB7CE17
:1051F00060E072E086E793E00E94AC08F2CE809116
:105200004A04882309F4F4CE80918A038111F0CEF8
:105210000E94CA0E2091780430917904211531053D
:1052200009F4E6CE80E041E050E0082F10E02A01CA
:10523000082E02C0440C551C0A94E2F7B201622306
:105240007323672B11F48F5FF0CF9091890390FF48
:105250009CC0880F880F880F8093570110925A01C5
:10526000895F8093580183E080935B0124E630E0FE
:1052700047E050E065E571E088E70E94AE2A892B9F
:1052800009F0B6CEA80125E0440F551F2A95E1F795
:105290008091890380FF8BC0E9E6F3E080E2DF01C3
:1052A0001D928A95E9F7EBEBF1E0FD87EC8707EBC0
:1052B00011E097E0A92E99249394AC85BD852D919A
:1052C000BD87AC87F80121908F01240E352E311C4B
:1052D000C10186589B4F1C01E22FF0E0E759FC4FBB
:1052E00030E020E07A2C721AB92C022E01C0BB0CDF
:1052F0000A94EAF7610190E0D6018D916D018B214E
:10530000672D691B6770862E062E000C770BB82F51
:1053100001C0BB0F8A94EAF78B2E719561957109D4
:105320006770772701C086956A95EAF7882A808199
:10533000882A80829F5F9830F9F62F5F3F4F319621
:105340002830310579F6EFEBF1E02C853D85E21749
:10535000F30709F0B2CF04E610E020E230E049E6BE
:1053600053E060E488E70E94CF2A892B09F040CE01
:105370004094509480917804909179044822592265
:10538000509279044092780433CE8295880F8076CB
:105390008093570198013695279536952795209348
:1053A0005A01815E8093580110925B015FCF46588D
:1053B0005B4F04E610E020E230E0D3CF81E0809341
:1053C00097038BCE81E08093980390CE81E0809309
:1053D0009903D2CE81E080939A03D7CE09BD19BD3F
:1053E00009B400FEFDCF8091D8008F7D8093D80056
:1053F0008091E00082608093E0008091E00081FD78
:10540000FCCF0E9452153FCC2B30310508F084CEE2
:10541000BCCE2B30310508F030CE68CE1092B900EA
:105420008CE08093B8000895B0E0A0E0EAE1FAE2F1
:105430000C94D12CB82EEB010E941F156C01EE24A8
:10544000E394F12CC431D10560F025E0E22EF12C7B
:10545000CF3FDC0731F0CE0164E170E00E94B62C52
:105460007B0184EAA82E94E8992E1092BC00A092A9
:10547000BC000E941F158C018091BC0087FF0DC0ED
:105480008091B900887F8830F9F08091B900887FD9
:105490008031D1F00FEF1FEF08C0C8010E94101536
:1054A000E816F90648F70EEF1FEFCF3FDC07E9F2E9
:1054B000C6010E941015C817D907B8F6C801CDB7A4
:1054C000DEB7EBE00C94ED2CB092BB009092BC00E8
:1054D0000E941F158C018091BC0087FF0AC080913B
:1054E000B900887F883111F08034A1F610E000E027
:1054F000E5CFC8010E941015E816F90660F7D3CF72
:105500000F931F93CF93DF93EB018093BB0084E84D
:105510008093BC000E941F158C018091BC0087FF06
:1055200011C02091B900287F81E090E0283211F469
:1055300090E080E0919581959109DF91CF911F9145
:105540000F910895CF3FDC0741F3C8010E94101569
:10555000C817D90710F78EEF9FEFEFCFB0E0A0E0AC
:10556000E4EBFAE20C94D42C6B018A017901B901C5
:105570000E94142AE6010C0D1D1DC017D10711F061
:1055800097FF08C024E92093BC00CDB7DEB7E8E060
:105590000C94F02CB70189910E94802AEECFB0E0E4
:1055A000A0E0E5EDFAE20C94D42CC62F6A01790153
:1055B000B8010E94142A97FD0CC0B8018C2F0E94DC
:1055C000802AE601EC0CFD1CCE15DF0511F097FFDB
:1055D00008C024E92093BC00CDB7DEB7E8E00C9406
:1055E000F02CB80189910E94802AEECF84E9809343
:1055F000BC0008958EE14A9B02C08150E1F74A9BAE
:10560000FECF08955A9880E28A95F1F75A9A089544
:10561000FC013BE03A95F1F798E020E080E031E0D2
:1056200040E14A95F1F7880F4A9B02C08160232729
:1056300042E04A95F1F7000040E14A95F1F79150B8
:1056400079F790E19A95F1F799B132E03A95F1F74F
:10565000000040E14A95F1F792FB992790F99227D3
:105660002081920F90830895A1E0B0E0EAE3FBE28D
:105670000C94D62C19828C017C01E60EF11C0E15BF
:105680001F0541F481E09981911180E02196E6E0C7
:105690000C94F22C0E94FA2ACE0101960E94082B4B
:1056A000F80181938F01EBCF529A5A9A089552983C
:1056B0005A9AEA9AE9E6F0E080818F7C8083089527
:1056C0006150770B91E001C0990F6A95EAF720E0ED
:1056D00031E0911108C0222391F05A9A80E28A9514
:1056E000F1F75A980895492F482339F05A9A2327F9
:1056F00040E24A95F1F79695ECCF5A98F9CF5A982F
:10570000EDCFFF920F931F93CF93DF93EC018C01AA
:10571000060F111DC017D10729F4CDB7DEB7E5E09C
:105720000C94F32CF9900E94022B68E08F2D0E94BC
:10573000602BF0CF1F920F920FB60F9211240F9390
:105740001F932F933F934F935F936F937F938F9309
:105750009F93AF93BF93EF93FF93CF93DF930F92FA
:10576000CDB7DEB719820E94FA2ACE0101960E94B7
:10577000082B082F069506950695282F229525704B
:10578000902F9570290F922F937026952695920F42
:10579000982797708981982B09F05CC0093008F030
:1057A00059C080E18A95F1F75A9A529A82E08A9517
:1057B000F1F700C05A9888E0089F80011124D801B1
:1057C000A050BF4F1696ED91FC9117973097A9F016
:1057D0006091A5017091A60114962D913C911597A9
:1057E000260F371F11968D919C911297680F791F84
:1057F00013964C9113978C910995F801E050FF4F47
:105800006381662351F02091A5013091A601848126
:105810009581820F931F0E94812B0E94022B80E1B1
:105820008A95F1F75A9852985A9A80E18A95F1F739
:10583000F801E050FF4F6081662351F02091A501EF
:105840003091A60181819281820F931F0E94342B97
:105850000E94FA2A0F90DF91CF91FF91EF91BF91B3
:10586000AF919F918F917F916F915F914F913F91F8
:105870002F911F910F910F900FBE0F901F901895B1
:105880000F931F93CF93DF93EC0109970CF04CC05B
:10589000F894529A5A9885E08A95F1F700009C2F67
:1058A000969595708C2F8570980F892F837096959B
:1058B000969523E0CC0FDD1F2A95E1F7980F8E0116
:1058C000092B0E94022B00C068E0802F0E94602BF1
:1058D00080E18A95F1F752985A9A4A9B1EC087E058
:1058E00090E04A991CC0FE01E050FF4F638166239F
:1058F000F9F02091A5013091A60184819581820F54
:10590000931F0E94342B811113C0529A5A9A789493
:10591000DF91CF911F910F91089500C0DECF0197C5
:1059200029F4529A5A9A789480E0F2CF00C0D9CFE5
:105930000E94FA2A80E28A95F1F75A98529A80E1F9
:105940008A95F1F7C050DF4F6881662351F02091AE
:10595000A5013091A60189819A81820F931F0E942F
:10596000812B0E94022B789481E0D2CFAA1BBB1B13
:1059700051E107C0AA1FBB1FA617B70710F0A61B4F
:10598000B70B881F991F5A95A9F780959095BC0170
:10599000CD0108952F923F924F925F926F927F9226
:1059A0008F929F92AF92BF92CF92DF92EF92FF922F
:1059B0000F931F93CF93DF93CDB7DEB7CA1BDB0BDB
:1059C0000FB6F894DEBF0FBECDBF09942A88398880
:1059D00048885F846E847D848C849B84AA84B98487
:1059E000C884DF80EE80FD800C811B81AA81B98193
:1059F000CE0FD11D0FB6F894DEBF0FBECDBFED01A7
:105A00000895991B79E004C0991F961708F0961B1A
:105A1000881F7A95C9F78095089597FB072E16F48D
:105A2000009407D077FD09D00E94B62C07FC05D062
:105A30003EF4909581959F4F0895709561957F4FA5
:105A40000895EE0FFF1F0590F491E02D0994FB01DE
:105A5000DC0102C005900D9241505040D8F70895E6
:105A6000FB01DC0104C08D910190801921F44150AB
:105A70005040C8F7881B990B0895FB01DC0102C058
:105A800001900D9241505040D8F70895DC01CB01B0
:105A9000FC01F999FECF06C0F2BDE1BDF89A31963E
:105AA00000B40D9241505040B8F70895F999FECFD7
:105AB00092BD81BDF89A992780B50895A8E1B0E01C
:105AC00042E050E00C94482DDC01A40FB51F41507A
:105AD000504048F0CB01840F951F2E910E94752DE8
